{
  "contractName": "ERC721PresetMinterPauserAutoId",
  "abi": [
    {
      "inputs": [
        {
          "internalType": "string",
          "name": "name",
          "type": "string"
        },
        {
          "internalType": "string",
          "name": "symbol",
          "type": "string"
        },
        {
          "internalType": "string",
          "name": "baseTokenURI",
          "type": "string"
        }
      ],
      "stateMutability": "nonpayable",
      "type": "constructor"
    },
    {
      "anonymous": false,
      "inputs": [
        {
          "indexed": true,
          "internalType": "address",
          "name": "owner",
          "type": "address"
        },
        {
          "indexed": true,
          "internalType": "address",
          "name": "approved",
          "type": "address"
        },
        {
          "indexed": true,
          "internalType": "uint256",
          "name": "tokenId",
          "type": "uint256"
        }
      ],
      "name": "Approval",
      "type": "event"
    },
    {
      "anonymous": false,
      "inputs": [
        {
          "indexed": true,
          "internalType": "address",
          "name": "owner",
          "type": "address"
        },
        {
          "indexed": true,
          "internalType": "address",
          "name": "operator",
          "type": "address"
        },
        {
          "indexed": false,
          "internalType": "bool",
          "name": "approved",
          "type": "bool"
        }
      ],
      "name": "ApprovalForAll",
      "type": "event"
    },
    {
      "anonymous": false,
      "inputs": [
        {
          "indexed": false,
          "internalType": "address",
          "name": "account",
          "type": "address"
        }
      ],
      "name": "Paused",
      "type": "event"
    },
    {
      "anonymous": false,
      "inputs": [
        {
          "indexed": true,
          "internalType": "bytes32",
          "name": "role",
          "type": "bytes32"
        },
        {
          "indexed": true,
          "internalType": "bytes32",
          "name": "previousAdminRole",
          "type": "bytes32"
        },
        {
          "indexed": true,
          "internalType": "bytes32",
          "name": "newAdminRole",
          "type": "bytes32"
        }
      ],
      "name": "RoleAdminChanged",
      "type": "event"
    },
    {
      "anonymous": false,
      "inputs": [
        {
          "indexed": true,
          "internalType": "bytes32",
          "name": "role",
          "type": "bytes32"
        },
        {
          "indexed": true,
          "internalType": "address",
          "name": "account",
          "type": "address"
        },
        {
          "indexed": true,
          "internalType": "address",
          "name": "sender",
          "type": "address"
        }
      ],
      "name": "RoleGranted",
      "type": "event"
    },
    {
      "anonymous": false,
      "inputs": [
        {
          "indexed": true,
          "internalType": "bytes32",
          "name": "role",
          "type": "bytes32"
        },
        {
          "indexed": true,
          "internalType": "address",
          "name": "account",
          "type": "address"
        },
        {
          "indexed": true,
          "internalType": "address",
          "name": "sender",
          "type": "address"
        }
      ],
      "name": "RoleRevoked",
      "type": "event"
    },
    {
      "anonymous": false,
      "inputs": [
        {
          "indexed": true,
          "internalType": "address",
          "name": "from",
          "type": "address"
        },
        {
          "indexed": true,
          "internalType": "address",
          "name": "to",
          "type": "address"
        },
        {
          "indexed": true,
          "internalType": "uint256",
          "name": "tokenId",
          "type": "uint256"
        }
      ],
      "name": "Transfer",
      "type": "event"
    },
    {
      "anonymous": false,
      "inputs": [
        {
          "indexed": false,
          "internalType": "address",
          "name": "account",
          "type": "address"
        }
      ],
      "name": "Unpaused",
      "type": "event"
    },
    {
      "anonymous": false,
      "inputs": [
        {
          "indexed": true,
          "internalType": "uint256",
          "name": "tokenId",
          "type": "uint256"
        }
      ],
      "name": "Update",
      "type": "event"
    },
    {
      "inputs": [],
      "name": "AUDITOR_ROLE",
      "outputs": [
        {
          "internalType": "bytes32",
          "name": "",
          "type": "bytes32"
        }
      ],
      "stateMutability": "view",
      "type": "function",
      "constant": true
    },
    {
      "inputs": [],
      "name": "CANDIDATE_ROLE",
      "outputs": [
        {
          "internalType": "bytes32",
          "name": "",
          "type": "bytes32"
        }
      ],
      "stateMutability": "view",
      "type": "function",
      "constant": true
    },
    {
      "inputs": [],
      "name": "DEFAULT_ADMIN_ROLE",
      "outputs": [
        {
          "internalType": "bytes32",
          "name": "",
          "type": "bytes32"
        }
      ],
      "stateMutability": "view",
      "type": "function",
      "constant": true
    },
    {
      "inputs": [],
      "name": "MINTER_ROLE",
      "outputs": [
        {
          "internalType": "bytes32",
          "name": "",
          "type": "bytes32"
        }
      ],
      "stateMutability": "view",
      "type": "function",
      "constant": true
    },
    {
      "inputs": [],
      "name": "PAUSER_ROLE",
      "outputs": [
        {
          "internalType": "bytes32",
          "name": "",
          "type": "bytes32"
        }
      ],
      "stateMutability": "view",
      "type": "function",
      "constant": true
    },
    {
      "inputs": [
        {
          "internalType": "address",
          "name": "to",
          "type": "address"
        },
        {
          "internalType": "uint256",
          "name": "tokenId",
          "type": "uint256"
        }
      ],
      "name": "approve",
      "outputs": [],
      "stateMutability": "nonpayable",
      "type": "function"
    },
    {
      "inputs": [
        {
          "internalType": "address",
          "name": "owner",
          "type": "address"
        }
      ],
      "name": "balanceOf",
      "outputs": [
        {
          "internalType": "uint256",
          "name": "",
          "type": "uint256"
        }
      ],
      "stateMutability": "view",
      "type": "function",
      "constant": true
    },
    {
      "inputs": [
        {
          "internalType": "uint256",
          "name": "tokenId",
          "type": "uint256"
        }
      ],
      "name": "burn",
      "outputs": [],
      "stateMutability": "nonpayable",
      "type": "function"
    },
    {
      "inputs": [
        {
          "internalType": "uint256",
          "name": "tokenId",
          "type": "uint256"
        }
      ],
      "name": "getApproved",
      "outputs": [
        {
          "internalType": "address",
          "name": "",
          "type": "address"
        }
      ],
      "stateMutability": "view",
      "type": "function",
      "constant": true
    },
    {
      "inputs": [
        {
          "internalType": "bytes32",
          "name": "role",
          "type": "bytes32"
        }
      ],
      "name": "getRoleAdmin",
      "outputs": [
        {
          "internalType": "bytes32",
          "name": "",
          "type": "bytes32"
        }
      ],
      "stateMutability": "view",
      "type": "function",
      "constant": true
    },
    {
      "inputs": [
        {
          "internalType": "bytes32",
          "name": "role",
          "type": "bytes32"
        },
        {
          "internalType": "uint256",
          "name": "index",
          "type": "uint256"
        }
      ],
      "name": "getRoleMember",
      "outputs": [
        {
          "internalType": "address",
          "name": "",
          "type": "address"
        }
      ],
      "stateMutability": "view",
      "type": "function",
      "constant": true
    },
    {
      "inputs": [
        {
          "internalType": "bytes32",
          "name": "role",
          "type": "bytes32"
        }
      ],
      "name": "getRoleMemberCount",
      "outputs": [
        {
          "internalType": "uint256",
          "name": "",
          "type": "uint256"
        }
      ],
      "stateMutability": "view",
      "type": "function",
      "constant": true
    },
    {
      "inputs": [
        {
          "internalType": "bytes32",
          "name": "role",
          "type": "bytes32"
        },
        {
          "internalType": "address",
          "name": "account",
          "type": "address"
        }
      ],
      "name": "grantRole",
      "outputs": [],
      "stateMutability": "nonpayable",
      "type": "function"
    },
    {
      "inputs": [
        {
          "internalType": "bytes32",
          "name": "role",
          "type": "bytes32"
        },
        {
          "internalType": "address",
          "name": "account",
          "type": "address"
        }
      ],
      "name": "hasRole",
      "outputs": [
        {
          "internalType": "bool",
          "name": "",
          "type": "bool"
        }
      ],
      "stateMutability": "view",
      "type": "function",
      "constant": true
    },
    {
      "inputs": [
        {
          "internalType": "address",
          "name": "owner",
          "type": "address"
        },
        {
          "internalType": "address",
          "name": "operator",
          "type": "address"
        }
      ],
      "name": "isApprovedForAll",
      "outputs": [
        {
          "internalType": "bool",
          "name": "",
          "type": "bool"
        }
      ],
      "stateMutability": "view",
      "type": "function",
      "constant": true
    },
    {
      "inputs": [],
      "name": "name",
      "outputs": [
        {
          "internalType": "string",
          "name": "",
          "type": "string"
        }
      ],
      "stateMutability": "view",
      "type": "function",
      "constant": true
    },
    {
      "inputs": [
        {
          "internalType": "uint256",
          "name": "tokenId",
          "type": "uint256"
        }
      ],
      "name": "ownerOf",
      "outputs": [
        {
          "internalType": "address",
          "name": "",
          "type": "address"
        }
      ],
      "stateMutability": "view",
      "type": "function",
      "constant": true
    },
    {
      "inputs": [],
      "name": "paused",
      "outputs": [
        {
          "internalType": "bool",
          "name": "",
          "type": "bool"
        }
      ],
      "stateMutability": "view",
      "type": "function",
      "constant": true
    },
    {
      "inputs": [
        {
          "internalType": "bytes32",
          "name": "role",
          "type": "bytes32"
        },
        {
          "internalType": "address",
          "name": "account",
          "type": "address"
        }
      ],
      "name": "renounceRole",
      "outputs": [],
      "stateMutability": "nonpayable",
      "type": "function"
    },
    {
      "inputs": [
        {
          "internalType": "bytes32",
          "name": "role",
          "type": "bytes32"
        },
        {
          "internalType": "address",
          "name": "account",
          "type": "address"
        }
      ],
      "name": "revokeRole",
      "outputs": [],
      "stateMutability": "nonpayable",
      "type": "function"
    },
    {
      "inputs": [
        {
          "internalType": "address",
          "name": "from",
          "type": "address"
        },
        {
          "internalType": "address",
          "name": "to",
          "type": "address"
        },
        {
          "internalType": "uint256",
          "name": "tokenId",
          "type": "uint256"
        }
      ],
      "name": "safeTransferFrom",
      "outputs": [],
      "stateMutability": "nonpayable",
      "type": "function"
    },
    {
      "inputs": [
        {
          "internalType": "address",
          "name": "from",
          "type": "address"
        },
        {
          "internalType": "address",
          "name": "to",
          "type": "address"
        },
        {
          "internalType": "uint256",
          "name": "tokenId",
          "type": "uint256"
        },
        {
          "internalType": "bytes",
          "name": "_data",
          "type": "bytes"
        }
      ],
      "name": "safeTransferFrom",
      "outputs": [],
      "stateMutability": "nonpayable",
      "type": "function"
    },
    {
      "inputs": [
        {
          "internalType": "address",
          "name": "operator",
          "type": "address"
        },
        {
          "internalType": "bool",
          "name": "approved",
          "type": "bool"
        }
      ],
      "name": "setApprovalForAll",
      "outputs": [],
      "stateMutability": "nonpayable",
      "type": "function"
    },
    {
      "inputs": [],
      "name": "symbol",
      "outputs": [
        {
          "internalType": "string",
          "name": "",
          "type": "string"
        }
      ],
      "stateMutability": "view",
      "type": "function",
      "constant": true
    },
    {
      "inputs": [
        {
          "internalType": "uint256",
          "name": "index",
          "type": "uint256"
        }
      ],
      "name": "tokenByIndex",
      "outputs": [
        {
          "internalType": "uint256",
          "name": "",
          "type": "uint256"
        }
      ],
      "stateMutability": "view",
      "type": "function",
      "constant": true
    },
    {
      "inputs": [
        {
          "internalType": "address",
          "name": "owner",
          "type": "address"
        },
        {
          "internalType": "uint256",
          "name": "index",
          "type": "uint256"
        }
      ],
      "name": "tokenOfOwnerByIndex",
      "outputs": [
        {
          "internalType": "uint256",
          "name": "",
          "type": "uint256"
        }
      ],
      "stateMutability": "view",
      "type": "function",
      "constant": true
    },
    {
      "inputs": [
        {
          "internalType": "uint256",
          "name": "tokenId",
          "type": "uint256"
        }
      ],
      "name": "tokenURI",
      "outputs": [
        {
          "internalType": "string",
          "name": "",
          "type": "string"
        }
      ],
      "stateMutability": "view",
      "type": "function",
      "constant": true
    },
    {
      "inputs": [],
      "name": "totalSupply",
      "outputs": [
        {
          "internalType": "uint256",
          "name": "",
          "type": "uint256"
        }
      ],
      "stateMutability": "view",
      "type": "function",
      "constant": true
    },
    {
      "inputs": [
        {
          "internalType": "address",
          "name": "from",
          "type": "address"
        },
        {
          "internalType": "address",
          "name": "to",
          "type": "address"
        },
        {
          "internalType": "uint256",
          "name": "tokenId",
          "type": "uint256"
        }
      ],
      "name": "transferFrom",
      "outputs": [],
      "stateMutability": "nonpayable",
      "type": "function"
    },
    {
      "inputs": [
        {
          "internalType": "address",
          "name": "candidateAddress",
          "type": "address"
        },
        {
          "internalType": "string",
          "name": "name",
          "type": "string"
        }
      ],
      "name": "registerCandidate",
      "outputs": [],
      "stateMutability": "nonpayable",
      "type": "function"
    },
    {
      "inputs": [
        {
          "internalType": "address",
          "name": "toGrantAuditorRole",
          "type": "address"
        }
      ],
      "name": "grantAuditorRole",
      "outputs": [],
      "stateMutability": "nonpayable",
      "type": "function"
    },
    {
      "inputs": [
        {
          "internalType": "address",
          "name": "toGrantMinterRole",
          "type": "address"
        }
      ],
      "name": "granMinterRole",
      "outputs": [],
      "stateMutability": "nonpayable",
      "type": "function"
    },
    {
      "inputs": [
        {
          "internalType": "uint256",
          "name": "tokenId",
          "type": "uint256"
        }
      ],
      "name": "getOwnerAddressByTokenId",
      "outputs": [
        {
          "internalType": "address",
          "name": "",
          "type": "address"
        }
      ],
      "stateMutability": "view",
      "type": "function",
      "constant": true
    },
    {
      "inputs": [
        {
          "internalType": "address",
          "name": "to",
          "type": "address"
        },
        {
          "internalType": "string",
          "name": "scorehash",
          "type": "string"
        }
      ],
      "name": "mint",
      "outputs": [],
      "stateMutability": "nonpayable",
      "type": "function"
    },
    {
      "inputs": [
        {
          "internalType": "uint256",
          "name": "tokenId",
          "type": "uint256"
        }
      ],
      "name": "getScoreHashByTokenId",
      "outputs": [
        {
          "internalType": "string",
          "name": "",
          "type": "string"
        }
      ],
      "stateMutability": "view",
      "type": "function",
      "constant": true
    },
    {
      "inputs": [
        {
          "internalType": "uint256",
          "name": "tokenId",
          "type": "uint256"
        },
        {
          "internalType": "string",
          "name": "newScoreHash",
          "type": "string"
        }
      ],
      "name": "updateScoreHashByTokenId",
      "outputs": [],
      "stateMutability": "nonpayable",
      "type": "function"
    },
    {
      "inputs": [],
      "name": "pause",
      "outputs": [],
      "stateMutability": "nonpayable",
      "type": "function"
    },
    {
      "inputs": [],
      "name": "unpause",
      "outputs": [],
      "stateMutability": "nonpayable",
      "type": "function"
    },
    {
      "inputs": [
        {
          "internalType": "bytes4",
          "name": "interfaceId",
          "type": "bytes4"
        }
      ],
      "name": "supportsInterface",
      "outputs": [
        {
          "internalType": "bool",
          "name": "",
          "type": "bool"
        }
      ],
      "stateMutability": "view",
      "type": "function",
      "constant": true
    }
  ],
  "bytecode": "0x60806040523480156200001157600080fd5b5060405162005df538038062005df5833981810160405281019062000037919062000508565b8282816002908051906020019062000051929190620003e6565b5080600390805190602001906200006a929190620003e6565b5050506000600e60006101000a81548160ff0219169083151502179055508060119080519060200190620000a0929190620003e6565b50620000c56000801b620000b96200015060201b60201c565b6200015860201b60201c565b620001067f9f2df0fed2c77648de5860a4cc508cd0818c85b8b8a1ab4ceeef8d981c8956a6620000fa6200015060201b60201c565b6200015860201b60201c565b620001477f65d7a28e3265b37a6474929f336521b332c1681b933f6cb9f3376673440d862a6200013b6200015060201b60201c565b6200015860201b60201c565b50505062000719565b600033905090565b6200016f8282620001a060201b620019771760201c565b6200019b8160016000858152602001908152602001600020620001b660201b620019851790919060201c565b505050565b620001b28282620001ee60201b60201c565b5050565b6000620001e6836000018373ffffffffffffffffffffffffffffffffffffffff1660001b620002df60201b60201c565b905092915050565b6200020082826200035960201b60201c565b620002db57600160008084815260200190815260200160002060000160008373ffffffffffffffffffffffffffffffffffffffff1673ffffffffffffffffffffffffffffffffffffffff16815260200190815260200160002060006101000a81548160ff021916908315150217905550620002806200015060201b60201c565b73ffffffffffffffffffffffffffffffffffffffff168173ffffffffffffffffffffffffffffffffffffffff16837f2f8788117e7eff1d82e926ec794901d17c78024a50270940304540a733656f0d60405160405180910390a45b5050565b6000620002f38383620003c360201b60201c565b6200034e57826000018290806001815401808255809150506001900390600052602060002001600090919091909150558260000180549050836001016000848152602001908152602001600020819055506001905062000353565b600090505b92915050565b600080600084815260200190815260200160002060000160008373ffffffffffffffffffffffffffffffffffffffff1673ffffffffffffffffffffffffffffffffffffffff16815260200190815260200160002060009054906101000a900460ff16905092915050565b600080836001016000848152602001908152602001600020541415905092915050565b828054620003f4906200063e565b90600052602060002090601f01602090048101928262000418576000855562000464565b82601f106200043357805160ff191683800117855562000464565b8280016001018555821562000464579182015b828111156200046357825182559160200191906001019062000446565b5b50905062000473919062000477565b5090565b5b808211156200049257600081600090555060010162000478565b5090565b6000620004ad620004a784620005d2565b620005a9565b905082815260208101848484011115620004c657600080fd5b620004d384828562000608565b509392505050565b600082601f830112620004ed57600080fd5b8151620004ff84826020860162000496565b91505092915050565b6000806000606084860312156200051e57600080fd5b600084015167ffffffffffffffff8111156200053957600080fd5b6200054786828701620004db565b935050602084015167ffffffffffffffff8111156200056557600080fd5b6200057386828701620004db565b925050604084015167ffffffffffffffff8111156200059157600080fd5b6200059f86828701620004db565b9150509250925092565b6000620005b5620005c8565b9050620005c3828262000674565b919050565b6000604051905090565b600067ffffffffffffffff821115620005f057620005ef620006d9565b5b620005fb8262000708565b9050602081019050919050565b60005b83811015620006285780820151818401526020810190506200060b565b8381111562000638576000848401525b50505050565b600060028204905060018216806200065757607f821691505b602082108114156200066e576200066d620006aa565b5b50919050565b6200067f8262000708565b810181811067ffffffffffffffff82111715620006a157620006a0620006d9565b5b80604052505050565b7f4e487b7100000000000000000000000000000000000000000000000000000000600052602260045260246000fd5b7f4e487b7100000000000000000000000000000000000000000000000000000000600052604160045260246000fd5b6000601f19601f8301169050919050565b6156cc80620007296000396000f3fe608060405234801561001057600080fd5b506004361061023d5760003560e01c80636e1d616e1161013b578063b601ce24116100b8578063d0def5211161007c578063d0def521146106e8578063d539139314610704578063d547741f14610722578063e63ab1e91461073e578063e985e9c51461075c5761023d565b8063b601ce2414610620578063b6227a6314610650578063b88d4fde1461066c578063c87b56dd14610688578063ca15c873146106b85761023d565b806395d89b41116100ff57806395d89b411461059057806398f63235146105ae578063a217fddf146105ca578063a22cb465146105e8578063b0d30d2f146106045761023d565b80636e1d616e146104d857806370a08231146104f65780638456cb59146105265780639010d07c1461053057806391d14854146105605761023d565b806336568abe116101c957806350c17b101161018d57806350c17b10146104205780635c975abb1461043c578063625339a51461045a5780636352211e146104785780636779288f146104a85761023d565b806336568abe146103925780633f4ba83a146103ae57806342842e0e146103b857806342966c68146103d45780634f6ccce7146103f05761023d565b806318160ddd1161021057806318160ddd146102dc57806323b872dd146102fa578063248a9ca3146103165780632f2ff15d146103465780632f745c59146103625761023d565b806301ffc9a71461024257806306fdde0314610272578063081812fc14610290578063095ea7b3146102c0575b600080fd5b61025c60048036038101906102579190613cb2565b61078c565b604051610269919061443e565b60405180910390f35b61027a61079e565b6040516102879190614474565b60405180910390f35b6102aa60048036038101906102a59190613d04565b610830565b6040516102b791906143d7565b60405180910390f35b6102da60048036038101906102d59190613bd5565b6108b5565b005b6102e46109cd565b6040516102f19190614876565b60405180910390f35b610314600480360381019061030f9190613a7b565b6109da565b005b610330600480360381019061032b9190613c11565b610a3a565b60405161033d9190614459565b60405180910390f35b610360600480360381019061035b9190613c3a565b610a59565b005b61037c60048036038101906103779190613bd5565b610a8d565b6040516103899190614876565b60405180910390f35b6103ac60048036038101906103a79190613c3a565b610b32565b005b6103b6610b66565b005b6103d260048036038101906103cd9190613a7b565b610be0565b005b6103ee60048036038101906103e99190613d04565b610c00565b005b61040a60048036038101906104059190613d04565b610c5c565b6040516104179190614876565b60405180910390f35b61043a60048036038101906104359190613a16565b610cf3565b005b610444610d73565b604051610451919061443e565b60405180910390f35b610462610d8a565b60405161046f9190614459565b60405180910390f35b610492600480360381019061048d9190613d04565b610dae565b60405161049f91906143d7565b60405180910390f35b6104c260048036038101906104bd9190613d04565b610e60565b6040516104cf9190614474565b60405180910390f35b6104e0610f05565b6040516104ed9190614459565b60405180910390f35b610510600480360381019061050b9190613a16565b610f29565b60405161051d9190614876565b60405180910390f35b61052e610fe1565b005b61054a60048036038101906105459190613c76565b61105b565b60405161055791906143d7565b60405180910390f35b61057a60048036038101906105759190613c3a565b61108a565b604051610587919061443e565b60405180910390f35b6105986110f4565b6040516105a59190614474565b60405180910390f35b6105c860048036038101906105c39190613a16565b611186565b005b6105d2611206565b6040516105df9190614459565b60405180910390f35b61060260048036038101906105fd9190613b45565b61120d565b005b61061e60048036038101906106199190613b81565b61138e565b005b61063a60048036038101906106359190613d04565b61151c565b60405161064791906143d7565b60405180910390f35b61066a60048036038101906106659190613d2d565b611559565b005b61068660048036038101906106819190613aca565b6116a8565b005b6106a2600480360381019061069d9190613d04565b61170a565b6040516106af9190614474565b60405180910390f35b6106d260048036038101906106cd9190613c11565b6117b1565b6040516106df9190614876565b60405180910390f35b61070260048036038101906106fd9190613b81565b6117d5565b005b61070c611867565b6040516107199190614459565b60405180910390f35b61073c60048036038101906107379190613c3a565b61188b565b005b6107466118bf565b6040516107539190614459565b60405180910390f35b61077660048036038101906107719190613a3f565b6118e3565b604051610783919061443e565b60405180910390f35b6000610797826119b5565b9050919050565b6060600280546107ad90614b7a565b80601f01602080910402602001604051908101604052809291908181526020018280546107d990614b7a565b80156108265780601f106107fb57610100808354040283529160200191610826565b820191906000526020600020905b81548152906001019060200180831161080957829003601f168201915b5050505050905090565b600061083b82611a2f565b61087a576040517f08c379a0000000000000000000000000000000000000000000000000000000008152600401610871906146f6565b60405180910390fd5b6008600083815260200190815260200160002060009054906101000a900473ffffffffffffffffffffffffffffffffffffffff169050919050565b60006108c082610dae565b90508073ffffffffffffffffffffffffffffffffffffffff168373ffffffffffffffffffffffffffffffffffffffff161415610931576040517f08c379a000000000000000000000000000000000000000000000000000000000815260040161092890614776565b60405180910390fd5b8073ffffffffffffffffffffffffffffffffffffffff16610950611a9b565b73ffffffffffffffffffffffffffffffffffffffff16148061097f575061097e81610979611a9b565b6118e3565b5b6109be576040517f08c379a00000000000000000000000000000000000000000000000000000000081526004016109b590614656565b60405180910390fd5b6109c88383611aa3565b505050565b6000600c80549050905090565b6109eb6109e5611a9b565b82611b5c565b610a2a576040517f08c379a0000000000000000000000000000000000000000000000000000000008152600401610a2190614796565b60405180910390fd5b610a35838383611c3a565b505050565b6000806000838152602001908152602001600020600101549050919050565b610a638282611e96565b610a88816001600085815260200190815260200160002061198590919063ffffffff16565b505050565b6000610a9883610f29565b8210610ad9576040517f08c379a0000000000000000000000000000000000000000000000000000000008152600401610ad090614536565b60405180910390fd5b600a60008473ffffffffffffffffffffffffffffffffffffffff1673ffffffffffffffffffffffffffffffffffffffff168152602001908152602001600020600083815260200190815260200160002054905092915050565b610b3c8282611ebf565b610b618160016000858152602001908152602001600020611f4290919063ffffffff16565b505050565b610b977f65d7a28e3265b37a6474929f336521b332c1681b933f6cb9f3376673440d862a610b92611a9b565b61108a565b610bd6576040517f08c379a0000000000000000000000000000000000000000000000000000000008152600401610bcd90614836565b60405180910390fd5b610bde611f72565b565b610bfb838383604051806020016040528060008152506116a8565b505050565b610c11610c0b611a9b565b82611b5c565b610c50576040517f08c379a0000000000000000000000000000000000000000000000000000000008152600401610c4790614816565b60405180910390fd5b610c5981612014565b50565b6000610c666109cd565b8210610ca7576040517f08c379a0000000000000000000000000000000000000000000000000000000008152600401610c9e906147b6565b60405180910390fd5b600c8281548110610ce1577f4e487b7100000000000000000000000000000000000000000000000000000000600052603260045260246000fd5b90600052602060002001549050919050565b610d076000801b610d02611a9b565b61108a565b610d46576040517f08c379a0000000000000000000000000000000000000000000000000000000008152600401610d3d90614756565b60405180910390fd5b610d707f9f2df0fed2c77648de5860a4cc508cd0818c85b8b8a1ab4ceeef8d981c8956a682612125565b50565b6000600e60009054906101000a900460ff16905090565b7f262ba5fdd1dad9ccb8241da1a07fd1fd1c160e2ff97efc222645f94f62d5b43a81565b6000806004600084815260200190815260200160002060009054906101000a900473ffffffffffffffffffffffffffffffffffffffff169050600073ffffffffffffffffffffffffffffffffffffffff168173ffffffffffffffffffffffffffffffffffffffff161415610e57576040517f08c379a0000000000000000000000000000000000000000000000000000000008152600401610e4e906146b6565b60405180910390fd5b80915050919050565b6060600660008381526020019081526020016000208054610e8090614b7a565b80601f0160208091040260200160405190810160405280929190818152602001828054610eac90614b7a565b8015610ef95780601f10610ece57610100808354040283529160200191610ef9565b820191906000526020600020905b815481529060010190602001808311610edc57829003601f168201915b50505050509050919050565b7f59a1c48e5837ad7a7f3dcedcbe129bf3249ec4fbf651fd4f5e2600ead39fe2f581565b60008073ffffffffffffffffffffffffffffffffffffffff168273ffffffffffffffffffffffffffffffffffffffff161415610f9a576040517f08c379a0000000000000000000000000000000000000000000000000000000008152600401610f9190614696565b60405180910390fd5b600560008373ffffffffffffffffffffffffffffffffffffffff1673ffffffffffffffffffffffffffffffffffffffff168152602001908152602001600020549050919050565b6110127f65d7a28e3265b37a6474929f336521b332c1681b933f6cb9f3376673440d862a61100d611a9b565b61108a565b611051576040517f08c379a0000000000000000000000000000000000000000000000000000000008152600401611048906145b6565b60405180910390fd5b611059612159565b565b600061108282600160008681526020019081526020016000206121fc90919063ffffffff16565b905092915050565b600080600084815260200190815260200160002060000160008373ffffffffffffffffffffffffffffffffffffffff1673ffffffffffffffffffffffffffffffffffffffff16815260200190815260200160002060009054906101000a900460ff16905092915050565b60606003805461110390614b7a565b80601f016020809104026020016040519081016040528092919081815260200182805461112f90614b7a565b801561117c5780601f106111515761010080835404028352916020019161117c565b820191906000526020600020905b81548152906001019060200180831161115f57829003601f168201915b5050505050905090565b61119a6000801b611195611a9b565b61108a565b6111d9576040517f08c379a00000000000000000000000000000000000000000000000000000000081526004016111d090614756565b60405180910390fd5b6112037f9f2df0fed2c77648de5860a4cc508cd0818c85b8b8a1ab4ceeef8d981c8956a682612125565b50565b6000801b81565b611215611a9b565b73ffffffffffffffffffffffffffffffffffffffff168273ffffffffffffffffffffffffffffffffffffffff161415611283576040517f08c379a000000000000000000000000000000000000000000000000000000000815260040161127a906145f6565b60405180910390fd5b8060096000611290611a9b565b73ffffffffffffffffffffffffffffffffffffffff1673ffffffffffffffffffffffffffffffffffffffff16815260200190815260200160002060008473ffffffffffffffffffffffffffffffffffffffff1673ffffffffffffffffffffffffffffffffffffffff16815260200190815260200160002060006101000a81548160ff0219169083151502179055508173ffffffffffffffffffffffffffffffffffffffff1661133d611a9b565b73ffffffffffffffffffffffffffffffffffffffff167f17307eab39ab6107e8899845ad3d59bd9653f200f220920489ca2b5937696c3183604051611382919061443e565b60405180910390a35050565b6113a26000801b61139d611a9b565b61108a565b6113e1576040517f08c379a00000000000000000000000000000000000000000000000000000000081526004016113d890614676565b60405180910390fd5b6040518060200160405280600081525080519060200120600f60008473ffffffffffffffffffffffffffffffffffffffff1673ffffffffffffffffffffffffffffffffffffffff1681526020019081526020016000206040516114449190614362565b60405180910390201461148c576040517f08c379a000000000000000000000000000000000000000000000000000000000815260040161148390614516565b60405180910390fd5b6114bd7f262ba5fdd1dad9ccb8241da1a07fd1fd1c160e2ff97efc222645f94f62d5b43a6114b8611a9b565b612125565b80600f60006114ca611a9b565b73ffffffffffffffffffffffffffffffffffffffff1673ffffffffffffffffffffffffffffffffffffffff1681526020019081526020016000209080519060200190611517929190613825565b505050565b60006004600083815260200190815260200160002060009054906101000a900473ffffffffffffffffffffffffffffffffffffffff169050919050565b3373ffffffffffffffffffffffffffffffffffffffff166004600084815260200190815260200160002060009054906101000a900473ffffffffffffffffffffffffffffffffffffffff1673ffffffffffffffffffffffffffffffffffffffff16146115fa576040517f08c379a00000000000000000000000000000000000000000000000000000000081526004016115f190614596565b60405180910390fd5b4260076000848152602001908152602001600020541161164f576040517f08c379a0000000000000000000000000000000000000000000000000000000008152600401611646906147f6565b60405180910390fd5b80600660008481526020019081526020016000209080519060200190611676929190613825565b50817f164f7b2ab803097dab5e39f06d2e4f3c3ddc5d4171abbdcc3e76443b8359c7f560405160405180910390a25050565b6116b96116b3611a9b565b83611b5c565b6116f8576040517f08c379a00000000000000000000000000000000000000000000000000000000081526004016116ef90614796565b60405180910390fd5b61170484848484612216565b50505050565b606061171582611a2f565b611754576040517f08c379a000000000000000000000000000000000000000000000000000000000815260040161174b90614736565b60405180910390fd5b600061175e612272565b9050600081511161177e57604051806020016040528060008152506117a9565b8061178884612304565b604051602001611799929190614379565b6040516020818303038152906040525b915050919050565b60006117ce600160008481526020019081526020016000206124b1565b9050919050565b6118067f9f2df0fed2c77648de5860a4cc508cd0818c85b8b8a1ab4ceeef8d981c8956a6611801611a9b565b61108a565b611845576040517f08c379a000000000000000000000000000000000000000000000000000000000815260040161183c906147d6565b60405180910390fd5b6118598261185360106124c6565b836124d4565b61186360106126ef565b5050565b7f9f2df0fed2c77648de5860a4cc508cd0818c85b8b8a1ab4ceeef8d981c8956a681565b6118958282612705565b6118ba8160016000858152602001908152602001600020611f4290919063ffffffff16565b505050565b7f65d7a28e3265b37a6474929f336521b332c1681b933f6cb9f3376673440d862a81565b6000600960008473ffffffffffffffffffffffffffffffffffffffff1673ffffffffffffffffffffffffffffffffffffffff16815260200190815260200160002060008373ffffffffffffffffffffffffffffffffffffffff1673ffffffffffffffffffffffffffffffffffffffff16815260200190815260200160002060009054906101000a900460ff16905092915050565b611981828261272e565b5050565b60006119ad836000018373ffffffffffffffffffffffffffffffffffffffff1660001b61280e565b905092915050565b60007f780e9d63000000000000000000000000000000000000000000000000000000007bffffffffffffffffffffffffffffffffffffffffffffffffffffffff1916827bffffffffffffffffffffffffffffffffffffffffffffffffffffffff19161480611a285750611a278261287e565b5b9050919050565b60008073ffffffffffffffffffffffffffffffffffffffff166004600084815260200190815260200160002060009054906101000a900473ffffffffffffffffffffffffffffffffffffffff1673ffffffffffffffffffffffffffffffffffffffff1614159050919050565b600033905090565b816008600083815260200190815260200160002060006101000a81548173ffffffffffffffffffffffffffffffffffffffff021916908373ffffffffffffffffffffffffffffffffffffffff160217905550808273ffffffffffffffffffffffffffffffffffffffff16611b1683610dae565b73ffffffffffffffffffffffffffffffffffffffff167f8c5be1e5ebec7d5bd14f71427d1e84f3dd0314c0f7b2291e5b200ac8c7c3b92560405160405180910390a45050565b6000611b6782611a2f565b611ba6576040517f08c379a0000000000000000000000000000000000000000000000000000000008152600401611b9d90614616565b60405180910390fd5b6000611bb183610dae565b90508073ffffffffffffffffffffffffffffffffffffffff168473ffffffffffffffffffffffffffffffffffffffff161480611c2057508373ffffffffffffffffffffffffffffffffffffffff16611c0884610830565b73ffffffffffffffffffffffffffffffffffffffff16145b80611c315750611c3081856118e3565b5b91505092915050565b8273ffffffffffffffffffffffffffffffffffffffff16611c5a82610dae565b73ffffffffffffffffffffffffffffffffffffffff1614611cb0576040517f08c379a0000000000000000000000000000000000000000000000000000000008152600401611ca790614716565b60405180910390fd5b600073ffffffffffffffffffffffffffffffffffffffff168273ffffffffffffffffffffffffffffffffffffffff161415611d20576040517f08c379a0000000000000000000000000000000000000000000000000000000008152600401611d17906145d6565b60405180910390fd5b611d2b838383612960565b611d36600082611aa3565b6001600560008573ffffffffffffffffffffffffffffffffffffffff1673ffffffffffffffffffffffffffffffffffffffff1681526020019081526020016000206000828254611d869190614a5c565b925050819055506001600560008473ffffffffffffffffffffffffffffffffffffffff1673ffffffffffffffffffffffffffffffffffffffff1681526020019081526020016000206000828254611ddd919061497b565b92505081905550816004600083815260200190815260200160002060006101000a81548173ffffffffffffffffffffffffffffffffffffffff021916908373ffffffffffffffffffffffffffffffffffffffff160217905550808273ffffffffffffffffffffffffffffffffffffffff168473ffffffffffffffffffffffffffffffffffffffff167fddf252ad1be2c89b69c2b068fc378daa952ba7f163c4a11628f55a4df523b3ef60405160405180910390a4505050565b611e9f82610a3a565b611eb081611eab611a9b565b612970565b611eba838361272e565b505050565b611ec7611a9b565b73ffffffffffffffffffffffffffffffffffffffff168173ffffffffffffffffffffffffffffffffffffffff1614611f34576040517f08c379a0000000000000000000000000000000000000000000000000000000008152600401611f2b90614856565b60405180910390fd5b611f3e8282612a0d565b5050565b6000611f6a836000018373ffffffffffffffffffffffffffffffffffffffff1660001b612aee565b905092915050565b611f7a610d73565b611fb9576040517f08c379a0000000000000000000000000000000000000000000000000000000008152600401611fb0906144f6565b60405180910390fd5b6000600e60006101000a81548160ff0219169083151502179055507f5db9ee0a495bf2e6ff9c91a7834c1ba4fdd244a5e8aa4e537bd38aeae4b073aa611ffd611a9b565b60405161200a91906143d7565b60405180910390a1565b600061201f82610dae565b905061202d81600084612960565b612038600083611aa3565b6001600560008373ffffffffffffffffffffffffffffffffffffffff1673ffffffffffffffffffffffffffffffffffffffff16815260200190815260200160002060008282546120889190614a5c565b925050819055506004600083815260200190815260200160002060006101000a81549073ffffffffffffffffffffffffffffffffffffffff021916905581600073ffffffffffffffffffffffffffffffffffffffff168273ffffffffffffffffffffffffffffffffffffffff167fddf252ad1be2c89b69c2b068fc378daa952ba7f163c4a11628f55a4df523b3ef60405160405180910390a45050565b61212f8282611977565b612154816001600085815260200190815260200160002061198590919063ffffffff16565b505050565b612161610d73565b156121a1576040517f08c379a000000000000000000000000000000000000000000000000000000000815260040161219890614636565b60405180910390fd5b6001600e60006101000a81548160ff0219169083151502179055507f62e78cea01bee320cd4e420270b5ea74000d11b0c9f74754ebdbfc544b05a2586121e5611a9b565b6040516121f291906143d7565b60405180910390a1565b600061220b8360000183612c6c565b60001c905092915050565b612221848484611c3a565b61222d84848484612d06565b61226c576040517f08c379a000000000000000000000000000000000000000000000000000000000815260040161226390614556565b60405180910390fd5b50505050565b60606011805461228190614b7a565b80601f01602080910402602001604051908101604052809291908181526020018280546122ad90614b7a565b80156122fa5780601f106122cf576101008083540402835291602001916122fa565b820191906000526020600020905b8154815290600101906020018083116122dd57829003601f168201915b5050505050905090565b6060600082141561234c576040518060400160405280600181526020017f300000000000000000000000000000000000000000000000000000000000000081525090506124ac565b600082905060005b6000821461237e57808061236790614bdd565b915050600a8261237791906149d1565b9150612354565b60008167ffffffffffffffff8111156123c0577f4e487b7100000000000000000000000000000000000000000000000000000000600052604160045260246000fd5b6040519080825280601f01601f1916602001820160405280156123f25781602001600182028036833780820191505090505b5090505b600085146124a55760018261240b9190614a5c565b9150600a8561241a9190614c26565b6030612426919061497b565b60f81b818381518110612462577f4e487b7100000000000000000000000000000000000000000000000000000000600052603260045260246000fd5b60200101907effffffffffffffffffffffffffffffffffffffffffffffffffffffffffffff1916908160001a905350600a8561249e91906149d1565b94506123f6565b8093505050505b919050565b60006124bf82600001612e9d565b9050919050565b600081600001549050919050565b600073ffffffffffffffffffffffffffffffffffffffff168373ffffffffffffffffffffffffffffffffffffffff161415612544576040517f08c379a000000000000000000000000000000000000000000000000000000000815260040161253b906146d6565b60405180910390fd5b61254d82611a2f565b1561258d576040517f08c379a000000000000000000000000000000000000000000000000000000000815260040161258490614576565b60405180910390fd5b61259960008484612960565b6001600560008573ffffffffffffffffffffffffffffffffffffffff1673ffffffffffffffffffffffffffffffffffffffff16815260200190815260200160002060008282546125e9919061497b565b92505081905550336004600084815260200190815260200160002060006101000a81548173ffffffffffffffffffffffffffffffffffffffff021916908373ffffffffffffffffffffffffffffffffffffffff16021790555080600660008481526020019081526020016000209080519060200190612669929190613825565b50607842612677919061497b565b6007600084815260200190815260200160002081905550818373ffffffffffffffffffffffffffffffffffffffff16600073ffffffffffffffffffffffffffffffffffffffff167fddf252ad1be2c89b69c2b068fc378daa952ba7f163c4a11628f55a4df523b3ef60405160405180910390a4505050565b6001816000016000828254019250508190555050565b61270e82610a3a565b61271f8161271a611a9b565b612970565b6127298383612a0d565b505050565b612738828261108a565b61280a57600160008084815260200190815260200160002060000160008373ffffffffffffffffffffffffffffffffffffffff1673ffffffffffffffffffffffffffffffffffffffff16815260200190815260200160002060006101000a81548160ff0219169083151502179055506127af611a9b565b73ffffffffffffffffffffffffffffffffffffffff168173ffffffffffffffffffffffffffffffffffffffff16837f2f8788117e7eff1d82e926ec794901d17c78024a50270940304540a733656f0d60405160405180910390a45b5050565b600061281a8383612eae565b612873578260000182908060018154018082558091505060019003906000526020600020016000909190919091505582600001805490508360010160008481526020019081526020016000208190555060019050612878565b600090505b92915050565b60007f80ac58cd000000000000000000000000000000000000000000000000000000007bffffffffffffffffffffffffffffffffffffffffffffffffffffffff1916827bffffffffffffffffffffffffffffffffffffffffffffffffffffffff1916148061294957507f5b5e139f000000000000000000000000000000000000000000000000000000007bffffffffffffffffffffffffffffffffffffffffffffffffffffffff1916827bffffffffffffffffffffffffffffffffffffffffffffffffffffffff1916145b80612959575061295882612ed1565b5b9050919050565b61296b838383612f4b565b505050565b61297a828261108a565b612a095761299f8173ffffffffffffffffffffffffffffffffffffffff166014612fa3565b6129ad8360001c6020612fa3565b6040516020016129be92919061439d565b6040516020818303038152906040526040517f08c379a0000000000000000000000000000000000000000000000000000000008152600401612a009190614474565b60405180910390fd5b5050565b612a17828261108a565b15612aea57600080600084815260200190815260200160002060000160008373ffffffffffffffffffffffffffffffffffffffff1673ffffffffffffffffffffffffffffffffffffffff16815260200190815260200160002060006101000a81548160ff021916908315150217905550612a8f611a9b565b73ffffffffffffffffffffffffffffffffffffffff168173ffffffffffffffffffffffffffffffffffffffff16837ff6391f5c32d9c69d2a47ea670b442974b53935d1edc7fd64eb21e047a839171b60405160405180910390a45b5050565b60008083600101600084815260200190815260200160002054905060008114612c60576000600182612b209190614a5c565b9050600060018660000180549050612b389190614a5c565b90506000866000018281548110612b78577f4e487b7100000000000000000000000000000000000000000000000000000000600052603260045260246000fd5b9060005260206000200154905080876000018481548110612bc2577f4e487b7100000000000000000000000000000000000000000000000000000000600052603260045260246000fd5b9060005260206000200181905550838760010160008381526020019081526020016000208190555086600001805480612c24577f4e487b7100000000000000000000000000000000000000000000000000000000600052603160045260246000fd5b60019003818190600052602060002001600090559055866001016000878152602001908152602001600020600090556001945050505050612c66565b60009150505b92915050565b600081836000018054905011612cb7576040517f08c379a0000000000000000000000000000000000000000000000000000000008152600401612cae90614496565b60405180910390fd5b826000018281548110612cf3577f4e487b7100000000000000000000000000000000000000000000000000000000600052603260045260246000fd5b9060005260206000200154905092915050565b6000612d278473ffffffffffffffffffffffffffffffffffffffff1661329d565b15612e90578373ffffffffffffffffffffffffffffffffffffffff1663150b7a02612d50611a9b565b8786866040518563ffffffff1660e01b8152600401612d7294939291906143f2565b602060405180830381600087803b158015612d8c57600080fd5b505af1925050508015612dbd57506040513d601f19601f82011682018060405250810190612dba9190613cdb565b60015b612e40573d8060008114612ded576040519150601f19603f3d011682016040523d82523d6000602084013e612df2565b606091505b50600081511415612e38576040517f08c379a0000000000000000000000000000000000000000000000000000000008152600401612e2f90614556565b60405180910390fd5b805181602001fd5b63150b7a0260e01b7bffffffffffffffffffffffffffffffffffffffffffffffffffffffff1916817bffffffffffffffffffffffffffffffffffffffffffffffffffffffff191614915050612e95565b600190505b949350505050565b600081600001805490509050919050565b600080836001016000848152602001908152602001600020541415905092915050565b60007f5a05180f000000000000000000000000000000000000000000000000000000007bffffffffffffffffffffffffffffffffffffffffffffffffffffffff1916827bffffffffffffffffffffffffffffffffffffffffffffffffffffffff19161480612f445750612f43826132b0565b5b9050919050565b612f5683838361332a565b612f5e610d73565b15612f9e576040517f08c379a0000000000000000000000000000000000000000000000000000000008152600401612f95906144d6565b60405180910390fd5b505050565b606060006002836002612fb69190614a02565b612fc0919061497b565b67ffffffffffffffff811115612fff577f4e487b7100000000000000000000000000000000000000000000000000000000600052604160045260246000fd5b6040519080825280601f01601f1916602001820160405280156130315781602001600182028036833780820191505090505b5090507f30000000000000000000000000000000000000000000000000000000000000008160008151811061308f577f4e487b7100000000000000000000000000000000000000000000000000000000600052603260045260246000fd5b60200101907effffffffffffffffffffffffffffffffffffffffffffffffffffffffffffff1916908160001a9053507f780000000000000000000000000000000000000000000000000000000000000081600181518110613119577f4e487b7100000000000000000000000000000000000000000000000000000000600052603260045260246000fd5b60200101907effffffffffffffffffffffffffffffffffffffffffffffffffffffffffffff1916908160001a905350600060018460026131599190614a02565b613163919061497b565b90505b600181111561324f577f3031323334353637383961626364656600000000000000000000000000000000600f8616601081106131cb577f4e487b7100000000000000000000000000000000000000000000000000000000600052603260045260246000fd5b1a60f81b828281518110613208577f4e487b7100000000000000000000000000000000000000000000000000000000600052603260045260246000fd5b60200101907effffffffffffffffffffffffffffffffffffffffffffffffffffffffffffff1916908160001a905350600485901c94508061324890614b50565b9050613166565b5060008414613293576040517f08c379a000000000000000000000000000000000000000000000000000000000815260040161328a906144b6565b60405180910390fd5b8091505092915050565b600080823b905060008111915050919050565b60007f7965db0b000000000000000000000000000000000000000000000000000000007bffffffffffffffffffffffffffffffffffffffffffffffffffffffff1916827bffffffffffffffffffffffffffffffffffffffffffffffffffffffff1916148061332357506133228261343e565b5b9050919050565b6133358383836134a8565b600073ffffffffffffffffffffffffffffffffffffffff168373ffffffffffffffffffffffffffffffffffffffff16141561337857613373816134ad565b6133b7565b8173ffffffffffffffffffffffffffffffffffffffff168373ffffffffffffffffffffffffffffffffffffffff16146133b6576133b583826134f6565b5b5b600073ffffffffffffffffffffffffffffffffffffffff168273ffffffffffffffffffffffffffffffffffffffff1614156133fa576133f581613663565b613439565b8273ffffffffffffffffffffffffffffffffffffffff168273ffffffffffffffffffffffffffffffffffffffff16146134385761343782826137a6565b5b5b505050565b60007f01ffc9a7000000000000000000000000000000000000000000000000000000007bffffffffffffffffffffffffffffffffffffffffffffffffffffffff1916827bffffffffffffffffffffffffffffffffffffffffffffffffffffffff1916149050919050565b505050565b600c80549050600d600083815260200190815260200160002081905550600c81908060018154018082558091505060019003906000526020600020016000909190919091505550565b6000600161350384610f29565b61350d9190614a5c565b90506000600b60008481526020019081526020016000205490508181146135f2576000600a60008673ffffffffffffffffffffffffffffffffffffffff1673ffffffffffffffffffffffffffffffffffffffff168152602001908152602001600020600084815260200190815260200160002054905080600a60008773ffffffffffffffffffffffffffffffffffffffff1673ffffffffffffffffffffffffffffffffffffffff16815260200190815260200160002060008481526020019081526020016000208190555081600b600083815260200190815260200160002081905550505b600b600084815260200190815260200160002060009055600a60008573ffffffffffffffffffffffffffffffffffffffff1673ffffffffffffffffffffffffffffffffffffffff16815260200190815260200160002060008381526020019081526020016000206000905550505050565b60006001600c805490506136779190614a5c565b90506000600d60008481526020019081526020016000205490506000600c83815481106136cd577f4e487b7100000000000000000000000000000000000000000000000000000000600052603260045260246000fd5b9060005260206000200154905080600c8381548110613715577f4e487b7100000000000000000000000000000000000000000000000000000000600052603260045260246000fd5b906000526020600020018190555081600d600083815260200190815260200160002081905550600d600085815260200190815260200160002060009055600c80548061378a577f4e487b7100000000000000000000000000000000000000000000000000000000600052603160045260246000fd5b6001900381819060005260206000200160009055905550505050565b60006137b183610f29565b905081600a60008573ffffffffffffffffffffffffffffffffffffffff1673ffffffffffffffffffffffffffffffffffffffff16815260200190815260200160002060008381526020019081526020016000208190555080600b600084815260200190815260200160002081905550505050565b82805461383190614b7a565b90600052602060002090601f016020900481019282613853576000855561389a565b82601f1061386c57805160ff191683800117855561389a565b8280016001018555821561389a579182015b8281111561389957825182559160200191906001019061387e565b5b5090506138a791906138ab565b5090565b5b808211156138c45760008160009055506001016138ac565b5090565b60006138db6138d6846148b6565b614891565b9050828152602081018484840111156138f357600080fd5b6138fe848285614b0e565b509392505050565b6000613919613914846148e7565b614891565b90508281526020810184848401111561393157600080fd5b61393c848285614b0e565b509392505050565b60008135905061395381615623565b92915050565b6000813590506139688161563a565b92915050565b60008135905061397d81615651565b92915050565b60008135905061399281615668565b92915050565b6000815190506139a781615668565b92915050565b600082601f8301126139be57600080fd5b81356139ce8482602086016138c8565b91505092915050565b600082601f8301126139e857600080fd5b81356139f8848260208601613906565b91505092915050565b600081359050613a108161567f565b92915050565b600060208284031215613a2857600080fd5b6000613a3684828501613944565b91505092915050565b60008060408385031215613a5257600080fd5b6000613a6085828601613944565b9250506020613a7185828601613944565b9150509250929050565b600080600060608486031215613a9057600080fd5b6000613a9e86828701613944565b9350506020613aaf86828701613944565b9250506040613ac086828701613a01565b9150509250925092565b60008060008060808587031215613ae057600080fd5b6000613aee87828801613944565b9450506020613aff87828801613944565b9350506040613b1087828801613a01565b925050606085013567ffffffffffffffff811115613b2d57600080fd5b613b39878288016139ad565b91505092959194509250565b60008060408385031215613b5857600080fd5b6000613b6685828601613944565b9250506020613b7785828601613959565b9150509250929050565b60008060408385031215613b9457600080fd5b6000613ba285828601613944565b925050602083013567ffffffffffffffff811115613bbf57600080fd5b613bcb858286016139d7565b9150509250929050565b60008060408385031215613be857600080fd5b6000613bf685828601613944565b9250506020613c0785828601613a01565b9150509250929050565b600060208284031215613c2357600080fd5b6000613c318482850161396e565b91505092915050565b60008060408385031215613c4d57600080fd5b6000613c5b8582860161396e565b9250506020613c6c85828601613944565b9150509250929050565b60008060408385031215613c8957600080fd5b6000613c978582860161396e565b9250506020613ca885828601613a01565b9150509250929050565b600060208284031215613cc457600080fd5b6000613cd284828501613983565b91505092915050565b600060208284031215613ced57600080fd5b6000613cfb84828501613998565b91505092915050565b600060208284031215613d1657600080fd5b6000613d2484828501613a01565b91505092915050565b60008060408385031215613d4057600080fd5b6000613d4e85828601613a01565b925050602083013567ffffffffffffffff811115613d6b57600080fd5b613d77858286016139d7565b9150509250929050565b613d8a81614a90565b82525050565b613d9981614aa2565b82525050565b613da881614aae565b82525050565b6000613db98261492d565b613dc38185614943565b9350613dd3818560208601614b1d565b613ddc81614d13565b840191505092915050565b60008154613df481614b7a565b613dfe8186614954565b94506001821660008114613e195760018114613e2a57613e5d565b60ff19831686528186019350613e5d565b613e3385614918565b60005b83811015613e5557815481890152600182019150602081019050613e36565b838801955050505b50505092915050565b6000613e7182614938565b613e7b818561495f565b9350613e8b818560208601614b1d565b613e9481614d13565b840191505092915050565b6000613eaa82614938565b613eb48185614970565b9350613ec4818560208601614b1d565b80840191505092915050565b6000613edd60228361495f565b9150613ee882614d24565b604082019050919050565b6000613f0060208361495f565b9150613f0b82614d73565b602082019050919050565b6000613f23602b8361495f565b9150613f2e82614d9c565b604082019050919050565b6000613f4660148361495f565b9150613f5182614deb565b602082019050919050565b6000613f6960288361495f565b9150613f7482614e14565b604082019050919050565b6000613f8c602b8361495f565b9150613f9782614e63565b604082019050919050565b6000613faf60328361495f565b9150613fba82614eb2565b604082019050919050565b6000613fd2601c8361495f565b9150613fdd82614f01565b602082019050919050565b6000613ff5601f8361495f565b915061400082614f2a565b602082019050919050565b6000614018603e8361495f565b915061402382614f53565b604082019050919050565b600061403b60248361495f565b915061404682614fa2565b604082019050919050565b600061405e60198361495f565b915061406982614ff1565b602082019050919050565b6000614081602c8361495f565b915061408c8261501a565b604082019050919050565b60006140a460108361495f565b91506140af82615069565b602082019050919050565b60006140c760388361495f565b91506140d282615092565b604082019050919050565b60006140ea604a8361495f565b91506140f5826150e1565b606082019050919050565b600061410d602a8361495f565b915061411882615156565b604082019050919050565b600061413060298361495f565b915061413b826151a5565b604082019050919050565b600061415360208361495f565b915061415e826151f4565b602082019050919050565b6000614176602c8361495f565b91506141818261521d565b604082019050919050565b600061419960298361495f565b91506141a48261526c565b604082019050919050565b60006141bc602f8361495f565b91506141c7826152bb565b604082019050919050565b60006141df603d8361495f565b91506141ea8261530a565b604082019050919050565b600061420260218361495f565b915061420d82615359565b604082019050919050565b600061422560318361495f565b9150614230826153a8565b604082019050919050565b6000614248602c8361495f565b9150614253826153f7565b604082019050919050565b600061426b601783614970565b915061427682615446565b601782019050919050565b600061428e603d8361495f565b91506142998261546f565b604082019050919050565b60006142b160298361495f565b91506142bc826154be565b604082019050919050565b60006142d460308361495f565b91506142df8261550d565b604082019050919050565b60006142f760408361495f565b91506143028261555c565b604082019050919050565b600061431a601183614970565b9150614325826155ab565b601182019050919050565b600061433d602f8361495f565b9150614348826155d4565b604082019050919050565b61435c81614b04565b82525050565b600061436e8284613de7565b915081905092915050565b60006143858285613e9f565b91506143918284613e9f565b91508190509392505050565b60006143a88261425e565b91506143b48285613e9f565b91506143bf8261430d565b91506143cb8284613e9f565b91508190509392505050565b60006020820190506143ec6000830184613d81565b92915050565b60006080820190506144076000830187613d81565b6144146020830186613d81565b6144216040830185614353565b81810360608301526144338184613dae565b905095945050505050565b60006020820190506144536000830184613d90565b92915050565b600060208201905061446e6000830184613d9f565b92915050565b6000602082019050818103600083015261448e8184613e66565b905092915050565b600060208201905081810360008301526144af81613ed0565b9050919050565b600060208201905081810360008301526144cf81613ef3565b9050919050565b600060208201905081810360008301526144ef81613f16565b9050919050565b6000602082019050818103600083015261450f81613f39565b9050919050565b6000602082019050818103600083015261452f81613f5c565b9050919050565b6000602082019050818103600083015261454f81613f7f565b9050919050565b6000602082019050818103600083015261456f81613fa2565b9050919050565b6000602082019050818103600083015261458f81613fc5565b9050919050565b600060208201905081810360008301526145af81613fe8565b9050919050565b600060208201905081810360008301526145cf8161400b565b9050919050565b600060208201905081810360008301526145ef8161402e565b9050919050565b6000602082019050818103600083015261460f81614051565b9050919050565b6000602082019050818103600083015261462f81614074565b9050919050565b6000602082019050818103600083015261464f81614097565b9050919050565b6000602082019050818103600083015261466f816140ba565b9050919050565b6000602082019050818103600083015261468f816140dd565b9050919050565b600060208201905081810360008301526146af81614100565b9050919050565b600060208201905081810360008301526146cf81614123565b9050919050565b600060208201905081810360008301526146ef81614146565b9050919050565b6000602082019050818103600083015261470f81614169565b9050919050565b6000602082019050818103600083015261472f8161418c565b9050919050565b6000602082019050818103600083015261474f816141af565b9050919050565b6000602082019050818103600083015261476f816141d2565b9050919050565b6000602082019050818103600083015261478f816141f5565b9050919050565b600060208201905081810360008301526147af81614218565b9050919050565b600060208201905081810360008301526147cf8161423b565b9050919050565b600060208201905081810360008301526147ef81614281565b9050919050565b6000602082019050818103600083015261480f816142a4565b9050919050565b6000602082019050818103600083015261482f816142c7565b9050919050565b6000602082019050818103600083015261484f816142ea565b9050919050565b6000602082019050818103600083015261486f81614330565b9050919050565b600060208201905061488b6000830184614353565b92915050565b600061489b6148ac565b90506148a78282614bac565b919050565b6000604051905090565b600067ffffffffffffffff8211156148d1576148d0614ce4565b5b6148da82614d13565b9050602081019050919050565b600067ffffffffffffffff82111561490257614901614ce4565b5b61490b82614d13565b9050602081019050919050565b60008190508160005260206000209050919050565b600081519050919050565b600081519050919050565b600082825260208201905092915050565b600081905092915050565b600082825260208201905092915050565b600081905092915050565b600061498682614b04565b915061499183614b04565b9250827fffffffffffffffffffffffffffffffffffffffffffffffffffffffffffffffff038211156149c6576149c5614c57565b5b828201905092915050565b60006149dc82614b04565b91506149e783614b04565b9250826149f7576149f6614c86565b5b828204905092915050565b6000614a0d82614b04565b9150614a1883614b04565b9250817fffffffffffffffffffffffffffffffffffffffffffffffffffffffffffffffff0483118215151615614a5157614a50614c57565b5b828202905092915050565b6000614a6782614b04565b9150614a7283614b04565b925082821015614a8557614a84614c57565b5b828203905092915050565b6000614a9b82614ae4565b9050919050565b60008115159050919050565b6000819050919050565b60007fffffffff0000000000000000000000000000000000000000000000000000000082169050919050565b600073ffffffffffffffffffffffffffffffffffffffff82169050919050565b6000819050919050565b82818337600083830152505050565b60005b83811015614b3b578082015181840152602081019050614b20565b83811115614b4a576000848401525b50505050565b6000614b5b82614b04565b91506000821415614b6f57614b6e614c57565b5b600182039050919050565b60006002820490506001821680614b9257607f821691505b60208210811415614ba657614ba5614cb5565b5b50919050565b614bb582614d13565b810181811067ffffffffffffffff82111715614bd457614bd3614ce4565b5b80604052505050565b6000614be882614b04565b91507fffffffffffffffffffffffffffffffffffffffffffffffffffffffffffffffff821415614c1b57614c1a614c57565b5b600182019050919050565b6000614c3182614b04565b9150614c3c83614b04565b925082614c4c57614c4b614c86565b5b828206905092915050565b7f4e487b7100000000000000000000000000000000000000000000000000000000600052601160045260246000fd5b7f4e487b7100000000000000000000000000000000000000000000000000000000600052601260045260246000fd5b7f4e487b7100000000000000000000000000000000000000000000000000000000600052602260045260246000fd5b7f4e487b7100000000000000000000000000000000000000000000000000000000600052604160045260246000fd5b6000601f19601f8301169050919050565b7f456e756d657261626c655365743a20696e646578206f7574206f6620626f756e60008201527f6473000000000000000000000000000000000000000000000000000000000000602082015250565b7f537472696e67733a20686578206c656e67746820696e73756666696369656e74600082015250565b7f4552433732315061757361626c653a20746f6b656e207472616e73666572207760008201527f68696c6520706175736564000000000000000000000000000000000000000000602082015250565b7f5061757361626c653a206e6f7420706175736564000000000000000000000000600082015250565b7f5468697320616464726573732068617320616c7265616479206265656e20726560008201527f6769737465726564000000000000000000000000000000000000000000000000602082015250565b7f455243373231456e756d657261626c653a206f776e657220696e646578206f7560008201527f74206f6620626f756e6473000000000000000000000000000000000000000000602082015250565b7f4552433732313a207472616e7366657220746f206e6f6e20455243373231526560008201527f63656976657220696d706c656d656e7465720000000000000000000000000000602082015250565b7f4552433732313a20746f6b656e20616c7265616479206d696e74656400000000600082015250565b7f4e6f7420746865207075626c6973686572206f66207468697320746f6b656e00600082015250565b7f4552433732315072657365744d696e7465725061757365724175746f49643a2060008201527f6d75737420686176652070617573657220726f6c6520746f2070617573650000602082015250565b7f4552433732313a207472616e7366657220746f20746865207a65726f2061646460008201527f7265737300000000000000000000000000000000000000000000000000000000602082015250565b7f4552433732313a20617070726f766520746f2063616c6c657200000000000000600082015250565b7f4552433732313a206f70657261746f7220717565727920666f72206e6f6e657860008201527f697374656e7420746f6b656e0000000000000000000000000000000000000000602082015250565b7f5061757361626c653a2070617573656400000000000000000000000000000000600082015250565b7f4552433732313a20617070726f76652063616c6c6572206973206e6f74206f7760008201527f6e6572206e6f7220617070726f76656420666f7220616c6c0000000000000000602082015250565b7f4552433732315072657365744d696e7465725061757365724175746f49643a2060008201527f6d75737420686176652061646d696e20726f6c6520746f20726567697374657260208201527f2063616e64696461746500000000000000000000000000000000000000000000604082015250565b7f4552433732313a2062616c616e636520717565727920666f7220746865207a6560008201527f726f206164647265737300000000000000000000000000000000000000000000602082015250565b7f4552433732313a206f776e657220717565727920666f72206e6f6e657869737460008201527f656e7420746f6b656e0000000000000000000000000000000000000000000000602082015250565b7f4552433732313a206d696e7420746f20746865207a65726f2061646472657373600082015250565b7f4552433732313a20617070726f76656420717565727920666f72206e6f6e657860008201527f697374656e7420746f6b656e0000000000000000000000000000000000000000602082015250565b7f4552433732313a207472616e73666572206f6620746f6b656e2074686174206960008201527f73206e6f74206f776e0000000000000000000000000000000000000000000000602082015250565b7f4552433732314d657461646174613a2055524920717565727920666f72206e6f60008201527f6e6578697374656e7420746f6b656e0000000000000000000000000000000000602082015250565b7f4552433732315072657365744d696e7465725061757365724175746f49643a2060008201527f6d75737420686176652061646d696e20726f6c6520746f206772616e74000000602082015250565b7f4552433732313a20617070726f76616c20746f2063757272656e74206f776e6560008201527f7200000000000000000000000000000000000000000000000000000000000000602082015250565b7f4552433732313a207472616e736665722063616c6c6572206973206e6f74206f60008201527f776e6572206e6f7220617070726f766564000000000000000000000000000000602082015250565b7f455243373231456e756d657261626c653a20676c6f62616c20696e646578206f60008201527f7574206f6620626f756e64730000000000000000000000000000000000000000602082015250565b7f416363657373436f6e74726f6c3a206163636f756e7420000000000000000000600082015250565b7f4552433732315072657365744d696e7465725061757365724175746f49643a2060008201527f6d7573742068617665206d696e74657220726f6c6520746f206d696e74000000602082015250565b7f546869732073636f726520746f6b656e2063616e206e6f206c6f6e676572206260008201527f6520656469747465640000000000000000000000000000000000000000000000602082015250565b7f4552433732314275726e61626c653a2063616c6c6572206973206e6f74206f7760008201527f6e6572206e6f7220617070726f76656400000000000000000000000000000000602082015250565b7f4552433732315072657365744d696e7465725061757365724175746f49643a2060008201527f6d75737420686176652070617573657220726f6c6520746f20756e7061757365602082015250565b7f206973206d697373696e6720726f6c6520000000000000000000000000000000600082015250565b7f416363657373436f6e74726f6c3a2063616e206f6e6c792072656e6f756e636560008201527f20726f6c657320666f722073656c660000000000000000000000000000000000602082015250565b61562c81614a90565b811461563757600080fd5b50565b61564381614aa2565b811461564e57600080fd5b50565b61565a81614aae565b811461566557600080fd5b50565b61567181614ab8565b811461567c57600080fd5b50565b61568881614b04565b811461569357600080fd5b5056fea264697066735822122078d170b28c378a85e5e407a2f477b0a60e85aacc8bda41805e6b2086930c4f9a64736f6c63430008030033",
  "immutableReferences": {},
  "source": "// SPDX-License-Identifier: MIT\n\npragma solidity ^0.8.0;\nimport \"../ERC721.sol\";\nimport \"../extensions/ERC721Enumerable.sol\";\n\nimport \"../extensions/ERC721Pausable.sol\";\nimport \"../extensions/ERC721Burnable.sol\";\nimport \"../../../access/AccessControlEnumerable.sol\";\nimport \"../../../utils/Context.sol\";\nimport \"../../../utils/Counters.sol\";\n\n/**\n * @dev {ERC721} token, including:\n *\n *  - ability for holders to burn (destroy) their tokens\n *  - a minter role that allows for token minting (creation)\n *  - a pauser role that allows to stop all token transfers\n *  - token ID and URI autogeneration\n *\n * This contract uses {AccessControl} to lock permissioned functions using the\n * different roles - head to its documentation for details.\n *\n * The account that deploys the contract will be granted the minter and pauser\n * roles, as well as the default admin role, which will let it grant both minter\n * and pauser roles to other accounts.\n */\ncontract ERC721PresetMinterPauserAutoId is Context, AccessControlEnumerable, ERC721Enumerable, ERC721Burnable, ERC721Pausable {\n    using Counters for Counters.Counter;\n    event Update(uint256 indexed tokenId);\n    mapping (address => string) _candidates;\n\n    bytes32 public constant MINTER_ROLE = keccak256(\"MINTER_ROLE\");\n    bytes32 public constant PAUSER_ROLE = keccak256(\"PAUSER_ROLE\");\n    bytes32 public constant CANDIDATE_ROLE = keccak256(\"CANDIDATE_ROLE\");\n    bytes32 public constant AUDITOR_ROLE = keccak256(\"AUDITOR_ROLE\");\n    \n\n    Counters.Counter private _tokenIdTracker;\n\n    string private _baseTokenURI;\n\n    /**\n     * @dev Grants `DEFAULT_ADMIN_ROLE`, `MINTER_ROLE` and `PAUSER_ROLE` to the\n     * account that deploys the contract.\n     *\n     * Token URIs will be autogenerated based on `baseURI` and their token IDs.\n     * See {ERC721-tokenURI}.\n     */\n    constructor(string memory name, string memory symbol, string memory baseTokenURI) ERC721(name, symbol) {\n        _baseTokenURI = baseTokenURI;\n\n        _setupRole(DEFAULT_ADMIN_ROLE, _msgSender());\n\n        _setupRole(MINTER_ROLE, _msgSender());\n        _setupRole(PAUSER_ROLE, _msgSender());\n    }\n\n    function _baseURI() internal view virtual override returns (string memory) {\n        return _baseTokenURI;\n    }\n\n    function registerCandidate(address candidateAddress, string memory name) public virtual {\n        require(hasRole(DEFAULT_ADMIN_ROLE, _msgSender()), \"ERC721PresetMinterPauserAutoId: must have admin role to register candidate\");\n        require(keccak256(bytes(_candidates[candidateAddress])) == keccak256(bytes(\"\")), \"This address has already been registered\");\n        _setupRole(CANDIDATE_ROLE, _msgSender());\n        _candidates[_msgSender()] = name;\n    }\n    function grantAuditorRole(address toGrantAuditorRole) public virtual {\n        require(hasRole(DEFAULT_ADMIN_ROLE, _msgSender()), \"ERC721PresetMinterPauserAutoId: must have admin role to grant\");\n        _setupRole(MINTER_ROLE, toGrantAuditorRole);\n    }\n\n    function granMinterRole(address toGrantMinterRole) public virtual {\n        require(hasRole(DEFAULT_ADMIN_ROLE, _msgSender()), \"ERC721PresetMinterPauserAutoId: must have admin role to grant\");\n        _setupRole(MINTER_ROLE, toGrantMinterRole);\n    }\n\n    function getOwnerAddressByTokenId(uint256 tokenId) public view returns (address)  {\n        return _owners[tokenId];\n    }\n\n    /**\n     * @dev Creates a new token f<p></p>or `to`. Its token ID will be automatically\n     * assigned (and available on the emitted {IERC721-Transfer} event), and the token\n     * URI autogenerated based on the base URI passed at construction.\n     *\n     * See {ERC721-_mint}.\n     *\n     * Requirements:\n     *\n     * - the caller must have the `MINTER_ROLE`.\n     */\n    function mint(address to, string memory scorehash) public virtual {\n        require(hasRole(MINTER_ROLE, _msgSender()), \"ERC721PresetMinterPauserAutoId: must have minter role to mint\");\n\n        // We cannot just use balanceOf to create the new tokenId because tokens\n        // can be burned (destroyed), so we need a separate counter.\n        _mint(to, _tokenIdTracker.current(), scorehash);\n        _tokenIdTracker.increment();\n    }\n\n    function getScoreHashByTokenId(uint256 tokenId) public view virtual returns (string memory) {\n        return _scoreHashes[tokenId];\n    }\n    \n    function updateScoreHashByTokenId(uint256 tokenId, string memory newScoreHash) public {\n        require(_owners[tokenId] == msg.sender, \"Not the publisher of this token\");\n        require(_endtimes[tokenId] > block.timestamp, \"This score token can no longer be editted\");\n        _scoreHashes[tokenId] = newScoreHash;\n        emit Update(tokenId);\n    }\n\n    /**\n     * @dev Pauses all token transfers.\n     *\n     * See {ERC721Pausable} and {Pausable-_pause}.\n     *\n     * Requirements:\n     *\n     * - the caller must have the `PAUSER_ROLE`.\n     */\n    function pause() public virtual {\n        require(hasRole(PAUSER_ROLE, _msgSender()), \"ERC721PresetMinterPauserAutoId: must have pauser role to pause\");\n        _pause();\n    }\n\n    /**\n     * @dev Unpauses all token transfers.\n     *\n     * See {ERC721Pausable} and {Pausable-_unpause}.\n     *\n     * Requirements:\n     *\n     * - the caller must have the `PAUSER_ROLE`.\n     */\n    function unpause() public virtual {\n        require(hasRole(PAUSER_ROLE, _msgSender()), \"ERC721PresetMinterPauserAutoId: must have pauser role to unpause\");\n        _unpause();\n    }\n\n    function _beforeTokenTransfer(address from, address to, uint256 tokenId) internal virtual override(ERC721, ERC721Enumerable, ERC721Pausable) {\n        super._beforeTokenTransfer(from, to, tokenId);\n    }\n\n    /**\n     * @dev See {IERC165-supportsInterface}.\n     */\n    function supportsInterface(bytes4 interfaceId) public view virtual override(AccessControlEnumerable, ERC721, ERC721Enumerable) returns (bool) {\n        return super.supportsInterface(interfaceId);\n    }\n}\n",
  "sourcePath": "/home/dev/Documents/schooldir/erc721-score-blockchain-service/contracts/token/ERC721/presets/ERC721PresetMinterPauserAutoId.sol",
  "compiler": {
    "name": "solc",
    "version": "0.8.3+commit.8d00100c.Emscripten.clang"
  },
  "schemaVersion": "3.4.3",
  "updatedAt": "2021-11-05T03:26:54.767Z",
  "networkType": "ethereum",
  "devdoc": {
    "details": "{ERC721} token, including:  - ability for holders to burn (destroy) their tokens  - a minter role that allows for token minting (creation)  - a pauser role that allows to stop all token transfers  - token ID and URI autogeneration This contract uses {AccessControl} to lock permissioned functions using the different roles - head to its documentation for details. The account that deploys the contract will be granted the minter and pauser roles, as well as the default admin role, which will let it grant both minter and pauser roles to other accounts.",
    "kind": "dev",
    "methods": {
      "approve(address,uint256)": {
        "details": "See {IERC721-approve}."
      },
      "balanceOf(address)": {
        "details": "See {IERC721-balanceOf}."
      },
      "burn(uint256)": {
        "details": "Burns `tokenId`. See {ERC721-_burn}. Requirements: - The caller must own `tokenId` or be an approved operator."
      },
      "constructor": {
        "details": "Grants `DEFAULT_ADMIN_ROLE`, `MINTER_ROLE` and `PAUSER_ROLE` to the account that deploys the contract. Token URIs will be autogenerated based on `baseURI` and their token IDs. See {ERC721-tokenURI}."
      },
      "getApproved(uint256)": {
        "details": "See {IERC721-getApproved}."
      },
      "getRoleAdmin(bytes32)": {
        "details": "Returns the admin role that controls `role`. See {grantRole} and {revokeRole}. To change a role's admin, use {_setRoleAdmin}."
      },
      "getRoleMember(bytes32,uint256)": {
        "details": "Returns one of the accounts that have `role`. `index` must be a value between 0 and {getRoleMemberCount}, non-inclusive. Role bearers are not sorted in any particular way, and their ordering may change at any point. WARNING: When using {getRoleMember} and {getRoleMemberCount}, make sure you perform all queries on the same block. See the following https://forum.openzeppelin.com/t/iterating-over-elements-on-enumerableset-in-openzeppelin-contracts/2296[forum post] for more information."
      },
      "getRoleMemberCount(bytes32)": {
        "details": "Returns the number of accounts that have `role`. Can be used together with {getRoleMember} to enumerate all bearers of a role."
      },
      "grantRole(bytes32,address)": {
        "details": "Overload {grantRole} to track enumerable memberships"
      },
      "hasRole(bytes32,address)": {
        "details": "Returns `true` if `account` has been granted `role`."
      },
      "isApprovedForAll(address,address)": {
        "details": "See {IERC721-isApprovedForAll}."
      },
      "mint(address,string)": {
        "details": "Creates a new token f<p></p>or `to`. Its token ID will be automatically assigned (and available on the emitted {IERC721-Transfer} event), and the token URI autogenerated based on the base URI passed at construction. See {ERC721-_mint}. Requirements: - the caller must have the `MINTER_ROLE`."
      },
      "name()": {
        "details": "See {IERC721Metadata-name}."
      },
      "ownerOf(uint256)": {
        "details": "See {IERC721-ownerOf}."
      },
      "pause()": {
        "details": "Pauses all token transfers. See {ERC721Pausable} and {Pausable-_pause}. Requirements: - the caller must have the `PAUSER_ROLE`."
      },
      "paused()": {
        "details": "Returns true if the contract is paused, and false otherwise."
      },
      "renounceRole(bytes32,address)": {
        "details": "Overload {renounceRole} to track enumerable memberships"
      },
      "revokeRole(bytes32,address)": {
        "details": "Overload {revokeRole} to track enumerable memberships"
      },
      "safeTransferFrom(address,address,uint256)": {
        "details": "See {IERC721-safeTransferFrom}."
      },
      "safeTransferFrom(address,address,uint256,bytes)": {
        "details": "See {IERC721-safeTransferFrom}."
      },
      "setApprovalForAll(address,bool)": {
        "details": "See {IERC721-setApprovalForAll}."
      },
      "supportsInterface(bytes4)": {
        "details": "See {IERC165-supportsInterface}."
      },
      "symbol()": {
        "details": "See {IERC721Metadata-symbol}."
      },
      "tokenByIndex(uint256)": {
        "details": "See {IERC721Enumerable-tokenByIndex}."
      },
      "tokenOfOwnerByIndex(address,uint256)": {
        "details": "See {IERC721Enumerable-tokenOfOwnerByIndex}."
      },
      "tokenURI(uint256)": {
        "details": "See {IERC721Metadata-tokenURI}."
      },
      "totalSupply()": {
        "details": "See {IERC721Enumerable-totalSupply}."
      },
      "transferFrom(address,address,uint256)": {
        "details": "See {IERC721-transferFrom}."
      },
      "unpause()": {
        "details": "Unpauses all token transfers. See {ERC721Pausable} and {Pausable-_unpause}. Requirements: - the caller must have the `PAUSER_ROLE`."
      }
    },
    "version": 1
  },
  "userdoc": {
    "kind": "user",
    "methods": {},
    "version": 1
  }
}